{
  "contractName": "Oracle",
  "abi": [
    {
      "anonymous": false,
      "inputs": [
        {
          "indexed": false,
          "internalType": "uint256",
          "name": "id",
          "type": "uint256"
        },
        {
          "indexed": false,
          "internalType": "string",
          "name": "urlToQuery",
          "type": "string"
        },
        {
          "indexed": false,
          "internalType": "string",
          "name": "attributeToFetch",
          "type": "string"
        }
      ],
      "name": "NewRequest",
      "type": "event"
    },
    {
      "anonymous": false,
      "inputs": [
        {
          "indexed": false,
          "internalType": "uint256",
          "name": "id",
          "type": "uint256"
        },
        {
          "indexed": false,
          "internalType": "string",
          "name": "urlToQuery",
          "type": "string"
        },
        {
          "indexed": false,
          "internalType": "string",
          "name": "attributeToFetch",
          "type": "string"
        },
        {
          "indexed": false,
          "internalType": "string",
          "name": "agreedValue",
          "type": "string"
        }
      ],
      "name": "UpdatedRequest",
      "type": "event"
    },
    {
      "constant": false,
      "inputs": [
        {
          "internalType": "string",
          "name": "_urlToQuery",
          "type": "string"
        },
        {
          "internalType": "string",
          "name": "_attributeToFetch",
          "type": "string"
        }
      ],
      "name": "createRequest",
      "outputs": [],
      "payable": false,
      "stateMutability": "nonpayable",
      "type": "function"
    },
    {
      "constant": false,
      "inputs": [
        {
          "internalType": "uint256",
          "name": "_id",
          "type": "uint256"
        },
        {
          "internalType": "string",
          "name": "_valueRetrieved",
          "type": "string"
        }
      ],
      "name": "updateRequest",
      "outputs": [],
      "payable": false,
      "stateMutability": "nonpayable",
      "type": "function"
    }
  ],
  "bytecode": "0x60806040526000600155600280556003805534801561001d57600080fd5b50610b688061002d6000396000f3fe608060405234801561001057600080fd5b50600436106100365760003560e01c8063cfb0ac991461003b578063df89f81914610100575b600080fd5b6100fe6004803603604081101561005157600080fd5b81019080803590602001909291908035906020019064010000000081111561007857600080fd5b82018360208201111561008a57600080fd5b803590602001918460018302840111640100000000831117156100ac57600080fd5b91908080601f016020809104026020016040519081016040528093929190818152602001838380828437600081840152601f19601f820116905080830192505050505050509192919290505050610252565b005b6102506004803603604081101561011657600080fd5b810190808035906020019064010000000081111561013357600080fd5b82018360208201111561014557600080fd5b8035906020019184600183028401116401000000008311171561016757600080fd5b91908080601f016020809104026020016040519081016040528093929190818152602001838380828437600081840152601f19601f820116905080830192505050505050509192919290803590602001906401000000008111156101ca57600080fd5b8201836020820111156101dc57600080fd5b803590602001918460018302840111640100000000831117156101fe57600080fd5b91908080601f016020809104026020016040519081016040528093929190818152602001838380828437600081840152601f19601f8201169050808301925050505050505091929192905050506106c3565b005b600080838154811061026057fe5b906000526020600020906007020190508060040160009054906101000a900460ff161561028d57506106bf565b60018160060160003373ffffffffffffffffffffffffffffffffffffffff1673ffffffffffffffffffffffffffffffffffffffff1681526020019081526020016000205414156106bd5760028160060160003373ffffffffffffffffffffffffffffffffffffffff1673ffffffffffffffffffffffffffffffffffffffff16815260200190815260200160002081905550600080905060008090505b8061039c576000836005016000848152602001908152602001600020805460018160011615610100020316600290049050141561038f576001905083836005016000848152602001908152602001600020908051906020019061038d929190610a0e565b505b8180600101925050610329565b600080905060008090505b6003548110156106b85760608560050160008381526020019081526020016000208054600181600116156101000203166002900480601f01602080910402602001604051908101604052809291908181526020018280546001816001161561010002031660029004801561045c5780601f106104315761010080835404028352916020019161045c565b820191906000526020600020905b81548152906001019060200180831161043f57829003601f168201915b5050505050905060608790508080519060200120828051906020012014156106a957838060010194505060025484106106a857878760030190805190602001906104a7929190610a0e565b5060018760040160006101000a81548160ff0219169083151502179055507f51f1e1f00d186e79f8ea7c82be079fcdd49fe881904a9cdc1903345eb69d3831876000015488600101896002018a6003016040518085815260200180602001806020018060200184810384528781815460018160011615610100020316600290048152602001915080546001816001161561010002031660029004801561058e5780601f106105635761010080835404028352916020019161058e565b820191906000526020600020905b81548152906001019060200180831161057157829003601f168201915b50508481038352868181546001816001161561010002031660029004815260200191508054600181600116156101000203166002900480156106115780601f106105e657610100808354040283529160200191610611565b820191906000526020600020905b8154815290600101906020018083116105f457829003601f168201915b50508481038252858181546001816001161561010002031660029004815260200191508054600181600116156101000203166002900480156106945780601f1061066957610100808354040283529160200191610694565b820191906000526020600020905b81548152906001019060200180831161067757829003601f168201915b505097505050505050505060405180910390a15b5b505080806001019150506103a7565b505050505b505b5050565b6000806040518060a0016040528060015481526020018581526020018481526020016040518060200160405280600081525081526020016000151581525090806001815401808255809150509060018203906000526020600020906007020160009091929091909150600082015181600001556020820151816001019080519060200190610752929190610a8e565b50604082015181600201908051906020019061076f929190610a8e565b50606082015181600301908051906020019061078c929190610a8e565b5060808201518160040160006101000a81548160ff0219169083151502179055505050905060008060018303815481106107c257fe5b906000526020600020906007020190506001816006016000733e4897523ed7532e5ed064f1a7cf15b6216fb14e73ffffffffffffffffffffffffffffffffffffffff1673ffffffffffffffffffffffffffffffffffffffff1681526020019081526020016000208190555060018160060160007335fa8692eb10f87d17cd27fb5488598d33b023e573ffffffffffffffffffffffffffffffffffffffff1673ffffffffffffffffffffffffffffffffffffffff1681526020019081526020016000208190555060018160060160007358fd79d34edc6362f92c6799ee46945113a6ea9173ffffffffffffffffffffffffffffffffffffffff1673ffffffffffffffffffffffffffffffffffffffff168152602001908152602001600020819055507f0312239616abfb14f7ffa065155abb0ca047274d86c965890db4c8a48b8ce4b66001548585604051808481526020018060200180602001838103835285818151815260200191508051906020019080838360005b83811015610953578082015181840152602081019050610938565b50505050905090810190601f1680156109805780820380516001836020036101000a031916815260200191505b50838103825284818151815260200191508051906020019080838360005b838110156109b957808201518184015260208101905061099e565b50505050905090810190601f1680156109e65780820380516001836020036101000a031916815260200191505b509550505050505060405180910390a160016000815480929190600101919050555050505050565b828054600181600116156101000203166002900490600052602060002090601f016020900481019282601f10610a4f57805160ff1916838001178555610a7d565b82800160010185558215610a7d579182015b82811115610a7c578251825591602001919060010190610a61565b5b509050610a8a9190610b0e565b5090565b828054600181600116156101000203166002900490600052602060002090601f016020900481019282601f10610acf57805160ff1916838001178555610afd565b82800160010185558215610afd579182015b82811115610afc578251825591602001919060010190610ae1565b5b509050610b0a9190610b0e565b5090565b610b3091905b80821115610b2c576000816000905550600101610b14565b5090565b9056fea265627a7a723158203eb9c1153d20392d792fd18241fc6d6ee12b7aefb6cabe60a36bb5f1ac0c2b0864736f6c63430005100032",
  "source": "pragma solidity >=0.4.21 <0.6.0;\n\ncontract Oracle {\n  Request[] requests; //list of requests made to the contract\n  uint currentId = 0; //increasing request id\n  uint minQuorum = 2; //minimum number of responses to receive before declaring final result\n  uint totalOracleCount = 3; // Hardcoded oracle count\n\n  // defines a general api request\n  struct Request {\n    uint id;                            //request id\n    string urlToQuery;                  //API url\n    string attributeToFetch;            //json attribute (key) to retrieve in the response\n    string agreedValue;                 //value from key\n    bool resolved;                      //wheather value is resolved\n    mapping(uint => string) anwers;     //answers provided by the oracles\n    mapping(address => uint) quorum;    //oracles which will query the answer (1=oracle hasn't voted, 2=oracle has voted)\n  }\n\n  //event that triggers oracle outside of the blockchain\n  event NewRequest (\n    uint id,\n    string urlToQuery,\n    string attributeToFetch\n  );\n\n  //triggered when there's a consensus on the final result\n  event UpdatedRequest (\n    uint id,\n    string urlToQuery,\n    string attributeToFetch,\n    string agreedValue\n  );\n\n  function createRequest (\n    string memory _urlToQuery,\n    string memory _attributeToFetch\n  )\n  public\n  {\n    uint lenght = requests.push(Request(currentId, _urlToQuery, _attributeToFetch, \"\", false));\n    Request storage r = requests[lenght-1];\n\n    // Hardcoded oracles address\n    r.quorum[address(0x3e4897523ed7532e5ed064F1a7Cf15b6216fB14E)] = 1;\n    r.quorum[address(0x35fA8692EB10F87D17Cd27fB5488598D33B023E5)] = 1;\n    r.quorum[address(0x58Fd79D34Edc6362f92c6799eE46945113A6EA91)] = 1;\n\n    // launch an event to be detected by oracle outside of blockchain\n    emit NewRequest (\n      currentId,\n      _urlToQuery,\n      _attributeToFetch\n    );\n\n    // increase request id\n    currentId++;\n  }\n\n  //called by the oracle to record its answer\n  function updateRequest (\n    uint _id,\n    string memory _valueRetrieved\n  ) public {\n\n    Request storage currRequest = requests[_id];\n    if (currRequest.resolved)\n      return;\n    //check if oracle is in the list of trusted oracles\n    //and if the oracle hasn't voted yet\n    if(currRequest.quorum[address(msg.sender)] == 1){\n\n      //marking that this address has voted\n      currRequest.quorum[msg.sender] = 2;\n\n      //iterate through \"array\" of answers until a position if free and save the retrieved value\n      uint tmpI = 0;\n      bool found = false;\n      while(!found) {\n        //find first empty slot\n        if(bytes(currRequest.anwers[tmpI]).length == 0){\n          found = true;\n          currRequest.anwers[tmpI] = _valueRetrieved;\n        }\n        tmpI++;\n      }\n\n      uint currentQuorum = 0;\n\n      //iterate through oracle list and check if enough oracles(minimum quorum)\n      //have voted the same answer has the current one\n      for(uint i = 0; i < totalOracleCount; i++){\n        bytes memory a = bytes(currRequest.anwers[i]);\n        bytes memory b = bytes(_valueRetrieved);\n\n        if(keccak256(a) == keccak256(b)){\n          currentQuorum++;\n          if(currentQuorum >= minQuorum){\n            currRequest.agreedValue = _valueRetrieved;\n            currRequest.resolved = true;\n            emit UpdatedRequest (\n              currRequest.id,\n              currRequest.urlToQuery,\n              currRequest.attributeToFetch,\n              currRequest.agreedValue\n            );\n          }\n        }\n      }\n    }\n  }\n}\n",
  "sourcePath": "E:/work/ethereum/simba/blockchain-oracle-master/on-chain-oracle/contracts/Oracle.sol",
  "compiler": {
    "name": "solc",
    "version": "0.5.16+commit.9c3226ce.Emscripten.clang"
  },
  "schemaVersion": "3.3.2",
  "updatedAt": "2020-12-16T07:28:20.984Z",
  "networkType": "ethereum",
  "devdoc": {
    "methods": {}
  },
  "userdoc": {
    "methods": {}
  }
}